S01700004763634170706C69636174696F6E372E7372656355
S11300000C9434000C9449000C9449000C9449005D
S11300100C9449000C9449000C9449000C94490038
S11300200C9449000C9449000C9449000C94490028
S11300300C9449000C9449000C9449000C94490018
S11300400C9449000C9449000C9449000C94490008
S11300500C9449000C9449000C9449000C944900F8
S11300600C9449000C94490011241FBECFEFD8E032
S1130070DEBFCDBF11E0A0E0B1E0E0E9F2E002C0F4
S113008005900D92AC30B107D9F70E9407010C948A
S113009046010C94000080E480937C0083E8809304
S11300A07A000895ECE7F0E090818F71907E892BBF
S11300B08083EAE7F0E0808180648083808186FD2C
S11300C0FDCF80917800909179000895982F907FCA
S11300D09BB94498459A0000459823E02A95F1F786
S11300E0000020E1829FC00111248BB94498459AF5
S11300F00000459889EF90E00197F1F700C00000F7
S1130100089583ED90E30197F1F700C000008AB1F0
S1130110806F8AB93C9A3D9A82E00E94660088E228
S11301200E9466008EE00E94660081E00E946600E4
S113013080E80E9466000895982F907F9BB9449AA6
S1130140459A0000459823E02A95F1F7000020E144
S1130150829FC00111248BB9449A459A00004598A6
S113016089EF90E00197F1F700C000000895CF9364
S1130170DF93EC018881882331F021960E949C0052
S113018089918111FBCFDF91CF910895CF92DF92B6
S1130190EF92FF920F931F93CF93DF93082F192FA2
S11301A0C3E0D0E0EE24E394F12CC12CD12CFE0169
S11301B01C161D06ACF42C2D3D2D6E2D7F2DAB0190
S11301C0440F551F660F771F660F771F660F771F43
S11301D0640F751F2F5F3F4F2E173F0781F702C033
S11301E06E2D7F2D802F912F0E941E01082F192F15
S11301F080E3860F0E949C002197C8F6DF91CF917F
S11302001F910F91FF90EF90DF90CF9008950E947F
S113021081000E944B000E94810080E091E00E94D6
S1130220B70080E00E9452009695879501970E943E
S1130230C60087E091E00E94B700EDCF97FB072E40
S113024016F4009407D077FD09D00E94320107FC10
S113025005D03EF4909581959F4F089570956195D2
S11302607F4F0895AA1BBB1B51E107C0AA1FBB1FE8
S1130270A617B70710F0A61BB70B881F991F5A952E
S1130280A9F780959095BC01CD010895F894FFCF0E
S10F029054656D703D20002063200000C8
S9030000FC
